{
  "_format": "hh-sol-artifact-1",
  "contractName": "BandL",
  "sourceName": "contracts/BandL.sol",
  "abi": [
    {
      "inputs": [
        {
          "internalType": "address",
          "name": "_address",
          "type": "address"
        }
      ],
      "name": "b",
      "outputs": [
        {
          "internalType": "uint256",
          "name": "",
          "type": "uint256"
        }
      ],
      "stateMutability": "view",
      "type": "function"
    },
    {
      "inputs": [
        {
          "internalType": "address",
          "name": "",
          "type": "address"
        },
        {
          "internalType": "uint256",
          "name": "",
          "type": "uint256"
        }
      ],
      "name": "borrow",
      "outputs": [
        {
          "internalType": "address",
          "name": "to",
          "type": "address"
        },
        {
          "internalType": "string",
          "name": "message",
          "type": "string"
        },
        {
          "internalType": "uint256",
          "name": "amount",
          "type": "uint256"
        },
        {
          "internalType": "uint256",
          "name": "timestamp",
          "type": "uint256"
        }
      ],
      "stateMutability": "view",
      "type": "function"
    },
    {
      "inputs": [
        {
          "internalType": "address",
          "name": "_from",
          "type": "address"
        },
        {
          "internalType": "string",
          "name": "_message",
          "type": "string"
        },
        {
          "internalType": "uint256",
          "name": "val",
          "type": "uint256"
        }
      ],
      "name": "borrowMoney",
      "outputs": [],
      "stateMutability": "nonpayable",
      "type": "function"
    },
    {
      "inputs": [
        {
          "internalType": "address",
          "name": "",
          "type": "address"
        },
        {
          "internalType": "uint256",
          "name": "",
          "type": "uint256"
        }
      ],
      "name": "borrow_pending",
      "outputs": [
        {
          "internalType": "address",
          "name": "to",
          "type": "address"
        },
        {
          "internalType": "string",
          "name": "message",
          "type": "string"
        },
        {
          "internalType": "uint256",
          "name": "amount",
          "type": "uint256"
        },
        {
          "internalType": "uint256",
          "name": "timestamp",
          "type": "uint256"
        }
      ],
      "stateMutability": "view",
      "type": "function"
    },
    {
      "inputs": [
        {
          "internalType": "address",
          "name": "_address",
          "type": "address"
        }
      ],
      "name": "bp",
      "outputs": [
        {
          "internalType": "uint256",
          "name": "",
          "type": "uint256"
        }
      ],
      "stateMutability": "view",
      "type": "function"
    },
    {
      "inputs": [
        {
          "internalType": "address",
          "name": "_address",
          "type": "address"
        }
      ],
      "name": "l",
      "outputs": [
        {
          "internalType": "uint256",
          "name": "",
          "type": "uint256"
        }
      ],
      "stateMutability": "view",
      "type": "function"
    },
    {
      "inputs": [
        {
          "internalType": "address",
          "name": "",
          "type": "address"
        },
        {
          "internalType": "uint256",
          "name": "",
          "type": "uint256"
        }
      ],
      "name": "lend",
      "outputs": [
        {
          "internalType": "address",
          "name": "to",
          "type": "address"
        },
        {
          "internalType": "string",
          "name": "message",
          "type": "string"
        },
        {
          "internalType": "uint256",
          "name": "amount",
          "type": "uint256"
        },
        {
          "internalType": "uint256",
          "name": "timestamp",
          "type": "uint256"
        }
      ],
      "stateMutability": "view",
      "type": "function"
    },
    {
      "inputs": [
        {
          "internalType": "address",
          "name": "_from",
          "type": "address"
        },
        {
          "internalType": "address",
          "name": "_to",
          "type": "address"
        },
        {
          "internalType": "string",
          "name": "message",
          "type": "string"
        },
        {
          "internalType": "uint256",
          "name": "val",
          "type": "uint256"
        },
        {
          "internalType": "uint256",
          "name": "timestamp",
          "type": "uint256"
        }
      ],
      "name": "lendMoney",
      "outputs": [],
      "stateMutability": "payable",
      "type": "function"
    },
    {
      "inputs": [
        {
          "internalType": "address",
          "name": "",
          "type": "address"
        },
        {
          "internalType": "uint256",
          "name": "",
          "type": "uint256"
        }
      ],
      "name": "lend_pending",
      "outputs": [
        {
          "internalType": "address",
          "name": "to",
          "type": "address"
        },
        {
          "internalType": "string",
          "name": "message",
          "type": "string"
        },
        {
          "internalType": "uint256",
          "name": "amount",
          "type": "uint256"
        },
        {
          "internalType": "uint256",
          "name": "timestamp",
          "type": "uint256"
        }
      ],
      "stateMutability": "view",
      "type": "function"
    },
    {
      "inputs": [
        {
          "internalType": "address",
          "name": "_address",
          "type": "address"
        }
      ],
      "name": "lp",
      "outputs": [
        {
          "internalType": "uint256",
          "name": "",
          "type": "uint256"
        }
      ],
      "stateMutability": "view",
      "type": "function"
    },
    {
      "inputs": [
        {
          "internalType": "address",
          "name": "_from",
          "type": "address"
        },
        {
          "internalType": "address",
          "name": "_to",
          "type": "address"
        },
        {
          "internalType": "string",
          "name": "message",
          "type": "string"
        },
        {
          "internalType": "uint256",
          "name": "val",
          "type": "uint256"
        },
        {
          "internalType": "uint256",
          "name": "timestamp",
          "type": "uint256"
        }
      ],
      "name": "reject",
      "outputs": [],
      "stateMutability": "nonpayable",
      "type": "function"
    }
  ],
  "bytecode": "0x608060405234801561001057600080fd5b50612029806100206000396000f3fe60806040526004361061009c5760003560e01c8063733948c111610064578063733948c1146101a3578063763cc077146101e05780637ee52d05146102205780638c0677631461025d578063a2fb342d14610286578063bda02782146102c65761009c565b8063031a77e3146100a1578063241a4eda146100bd5780632a936382146100e65780634b8a3529146101235780635c00cc9a14610163575b600080fd5b6100bb60048036038101906100b691906116c1565b610303565b005b3480156100c957600080fd5b506100e460048036038101906100df91906116c1565b61079e565b005b3480156100f257600080fd5b5061010d60048036038101906101089190611758565b61089f565b60405161011a9190611794565b60405180910390f35b34801561012f57600080fd5b5061014a600480360381019061014591906117af565b6108eb565b60405161015a949392919061187d565b60405180910390f35b34801561016f57600080fd5b5061018a600480360381019061018591906117af565b6109e0565b60405161019a949392919061187d565b60405180910390f35b3480156101af57600080fd5b506101ca60048036038101906101c59190611758565b610ad5565b6040516101d79190611794565b60405180910390f35b3480156101ec57600080fd5b50610207600480360381019061020291906117af565b610b21565b604051610217949392919061187d565b60405180910390f35b34801561022c57600080fd5b5061024760048036038101906102429190611758565b610c16565b6040516102549190611794565b60405180910390f35b34801561026957600080fd5b50610284600480360381019061027f91906118c9565b610c62565b005b34801561029257600080fd5b506102ad60048036038101906102a891906117af565b610ed4565b6040516102bd949392919061187d565b60405180910390f35b3480156102d257600080fd5b506102ed60048036038101906102e89190611758565b610fc9565b6040516102fa9190611794565b60405180910390f35b8373ffffffffffffffffffffffffffffffffffffffff163373ffffffffffffffffffffffffffffffffffffffff1614610371576040517f08c379a0000000000000000000000000000000000000000000000000000000008152600401610368906119aa565b60405180910390fd5b813410156103b4576040517f08c379a00000000000000000000000000000000000000000000000000000000081526004016103ab90611a16565b60405180910390fd5b6000600360008673ffffffffffffffffffffffffffffffffffffffff1673ffffffffffffffffffffffffffffffffffffffff1681526020019081526020016000208054905011610439576040517f08c379a000000000000000000000000000000000000000000000000000000000815260040161043090611a82565b60405180910390fd5b8473ffffffffffffffffffffffffffffffffffffffff166108fc349081150290604051600060405180830381858888f1935050505015801561047f573d6000803e3d6000fd5b506000429050600160003373ffffffffffffffffffffffffffffffffffffffff1673ffffffffffffffffffffffffffffffffffffffff16815260200190815260200160002060405180608001604052808873ffffffffffffffffffffffffffffffffffffffff1681526020016040518060400160405280600481526020017f646f6e6500000000000000000000000000000000000000000000000000000000815250815260200185815260200183815250908060018154018082558091505060019003906000526020600020906004020160009091909190915060008201518160000160006101000a81548173ffffffffffffffffffffffffffffffffffffffff021916908373ffffffffffffffffffffffffffffffffffffffff16021790555060208201518160010190816105b59190611cae565b50604082015181600201556060820151816003015550506000808773ffffffffffffffffffffffffffffffffffffffff1673ffffffffffffffffffffffffffffffffffffffff16815260200190815260200160002060405180608001604052803373ffffffffffffffffffffffffffffffffffffffff1681526020016040518060400160405280600e81526020017f726571756573744772616e746564000000000000000000000000000000000000815250815260200185815260200183815250908060018154018082558091505060019003906000526020600020906004020160009091909190915060008201518160000160006101000a81548173ffffffffffffffffffffffffffffffffffffffff021916908373ffffffffffffffffffffffffffffffffffffffff16021790555060208201518160010190816106fb9190611cae565b5060408201518160020155606082015181600301555050610754600260405180608001604052808873ffffffffffffffffffffffffffffffffffffffff1681526020018781526020018681526020018581525088611014565b610796600360405180608001604052808973ffffffffffffffffffffffffffffffffffffffff1681526020018781526020018681526020018581525087611014565b505050505050565b8373ffffffffffffffffffffffffffffffffffffffff163373ffffffffffffffffffffffffffffffffffffffff161461080c576040517f08c379a0000000000000000000000000000000000000000000000000000000008152600401610803906119aa565b60405180910390fd5b600060405180608001604052808773ffffffffffffffffffffffffffffffffffffffff16815260200185815260200184815260200183815250905061085360038233611014565b84816000019073ffffffffffffffffffffffffffffffffffffffff16908173ffffffffffffffffffffffffffffffffffffffff168152505061089760028288611014565b505050505050565b6000600160008373ffffffffffffffffffffffffffffffffffffffff1673ffffffffffffffffffffffffffffffffffffffff168152602001908152602001600020805490509050919050565b6000602052816000526040600020818154811061090757600080fd5b9060005260206000209060040201600091509150508060000160009054906101000a900473ffffffffffffffffffffffffffffffffffffffff169080600101805461095190611ad1565b80601f016020809104026020016040519081016040528092919081815260200182805461097d90611ad1565b80156109ca5780601f1061099f576101008083540402835291602001916109ca565b820191906000526020600020905b8154815290600101906020018083116109ad57829003601f168201915b5050505050908060020154908060030154905084565b600260205281600052604060002081815481106109fc57600080fd5b9060005260206000209060040201600091509150508060000160009054906101000a900473ffffffffffffffffffffffffffffffffffffffff1690806001018054610a4690611ad1565b80601f0160208091040260200160405190810160405280929190818152602001828054610a7290611ad1565b8015610abf5780601f10610a9457610100808354040283529160200191610abf565b820191906000526020600020905b815481529060010190602001808311610aa257829003601f168201915b5050505050908060020154908060030154905084565b6000600360008373ffffffffffffffffffffffffffffffffffffffff1673ffffffffffffffffffffffffffffffffffffffff168152602001908152602001600020805490509050919050565b60036020528160005260406000208181548110610b3d57600080fd5b9060005260206000209060040201600091509150508060000160009054906101000a900473ffffffffffffffffffffffffffffffffffffffff1690806001018054610b8790611ad1565b80601f0160208091040260200160405190810160405280929190818152602001828054610bb390611ad1565b8015610c005780601f10610bd557610100808354040283529160200191610c00565b820191906000526020600020905b815481529060010190602001808311610be357829003601f168201915b5050505050908060020154908060030154905084565b6000600260008373ffffffffffffffffffffffffffffffffffffffff1673ffffffffffffffffffffffffffffffffffffffff168152602001908152602001600020805490509050919050565b60008111610ca5576040517f08c379a0000000000000000000000000000000000000000000000000000000008152600401610c9c90611dcc565b60405180910390fd5b6000429050600260003373ffffffffffffffffffffffffffffffffffffffff1673ffffffffffffffffffffffffffffffffffffffff16815260200190815260200160002060405180608001604052808673ffffffffffffffffffffffffffffffffffffffff16815260200185815260200184815260200183815250908060018154018082558091505060019003906000526020600020906004020160009091909190915060008201518160000160006101000a81548173ffffffffffffffffffffffffffffffffffffffff021916908373ffffffffffffffffffffffffffffffffffffffff1602179055506020820151816001019081610da59190611cae565b5060408201518160020155606082015181600301555050600360008573ffffffffffffffffffffffffffffffffffffffff1673ffffffffffffffffffffffffffffffffffffffff16815260200190815260200160002060405180608001604052803373ffffffffffffffffffffffffffffffffffffffff16815260200185815260200184815260200183815250908060018154018082558091505060019003906000526020600020906004020160009091909190915060008201518160000160006101000a81548173ffffffffffffffffffffffffffffffffffffffff021916908373ffffffffffffffffffffffffffffffffffffffff1602179055506020820151816001019081610eb79190611cae565b506040820151816002015560608201518160030155505050505050565b60016020528160005260406000208181548110610ef057600080fd5b9060005260206000209060040201600091509150508060000160009054906101000a900473ffffffffffffffffffffffffffffffffffffffff1690806001018054610f3a90611ad1565b80601f0160208091040260200160405190810160405280929190818152602001828054610f6690611ad1565b8015610fb35780601f10610f8857610100808354040283529160200191610fb3565b820191906000526020600020905b815481529060010190602001808311610f9657829003601f168201915b5050505050908060020154908060030154905084565b60008060008373ffffffffffffffffffffffffffffffffffffffff1673ffffffffffffffffffffffffffffffffffffffff168152602001908152602001600020805490509050919050565b6000808460008473ffffffffffffffffffffffffffffffffffffffff1673ffffffffffffffffffffffffffffffffffffffff16815260200190815260200160002080549050905060005b8181101561121a57846000015173ffffffffffffffffffffffffffffffffffffffff168660008673ffffffffffffffffffffffffffffffffffffffff1673ffffffffffffffffffffffffffffffffffffffff16815260200190815260200160002082815481106110d1576110d0611dec565b5b906000526020600020906004020160000160009054906101000a900473ffffffffffffffffffffffffffffffffffffffff1673ffffffffffffffffffffffffffffffffffffffff1614801561118a575084604001518660008673ffffffffffffffffffffffffffffffffffffffff1673ffffffffffffffffffffffffffffffffffffffff168152602001908152602001600020828154811061117657611175611dec565b5b906000526020600020906004020160020154145b80156111fa575084606001518660008673ffffffffffffffffffffffffffffffffffffffff1673ffffffffffffffffffffffffffffffffffffffff16815260200190815260200160002082815481106111e6576111e5611dec565b5b906000526020600020906004020160030154145b156112075780925061121a565b808061121290611e4a565b91505061105e565b5060008560008573ffffffffffffffffffffffffffffffffffffffff1673ffffffffffffffffffffffffffffffffffffffff16815260200190815260200160002080549050111561146f578460008473ffffffffffffffffffffffffffffffffffffffff1673ffffffffffffffffffffffffffffffffffffffff1681526020019081526020016000206001826112b09190611e92565b815481106112c1576112c0611dec565b5b90600052602060002090600402018560008573ffffffffffffffffffffffffffffffffffffffff1673ffffffffffffffffffffffffffffffffffffffff168152602001908152602001600020838154811061131f5761131e611dec565b5b90600052602060002090600402016000820160009054906101000a900473ffffffffffffffffffffffffffffffffffffffff168160000160006101000a81548173ffffffffffffffffffffffffffffffffffffffff021916908373ffffffffffffffffffffffffffffffffffffffff160217905550600182018160010190816113a89190611edc565b5060028201548160020155600382015481600301559050508460008473ffffffffffffffffffffffffffffffffffffffff1673ffffffffffffffffffffffffffffffffffffffff16815260200190815260200160002080548061140e5761140d611fc4565b5b6001900381819060005260206000209060040201600080820160006101000a81549073ffffffffffffffffffffffffffffffffffffffff021916905560018201600061145a9190611476565b60028201600090556003820160009055505090555b5050505050565b50805461148290611ad1565b6000825580601f1061149457506114b3565b601f0160209004906000526020600020908101906114b291906114b6565b5b50565b5b808211156114cf5760008160009055506001016114b7565b5090565b6000604051905090565b600080fd5b600080fd5b600073ffffffffffffffffffffffffffffffffffffffff82169050919050565b6000611512826114e7565b9050919050565b61152281611507565b811461152d57600080fd5b50565b60008135905061153f81611519565b92915050565b600080fd5b600080fd5b6000601f19601f8301169050919050565b7f4e487b7100000000000000000000000000000000000000000000000000000000600052604160045260246000fd5b6115988261154f565b810181811067ffffffffffffffff821117156115b7576115b6611560565b5b80604052505050565b60006115ca6114d3565b90506115d6828261158f565b919050565b600067ffffffffffffffff8211156115f6576115f5611560565b5b6115ff8261154f565b9050602081019050919050565b82818337600083830152505050565b600061162e611629846115db565b6115c0565b90508281526020810184848401111561164a5761164961154a565b5b61165584828561160c565b509392505050565b600082601f83011261167257611671611545565b5b813561168284826020860161161b565b91505092915050565b6000819050919050565b61169e8161168b565b81146116a957600080fd5b50565b6000813590506116bb81611695565b92915050565b600080600080600060a086880312156116dd576116dc6114dd565b5b60006116eb88828901611530565b95505060206116fc88828901611530565b945050604086013567ffffffffffffffff81111561171d5761171c6114e2565b5b6117298882890161165d565b935050606061173a888289016116ac565b925050608061174b888289016116ac565b9150509295509295909350565b60006020828403121561176e5761176d6114dd565b5b600061177c84828501611530565b91505092915050565b61178e8161168b565b82525050565b60006020820190506117a96000830184611785565b92915050565b600080604083850312156117c6576117c56114dd565b5b60006117d485828601611530565b92505060206117e5858286016116ac565b9150509250929050565b6117f881611507565b82525050565b600081519050919050565b600082825260208201905092915050565b60005b8381101561183857808201518184015260208101905061181d565b60008484015250505050565b600061184f826117fe565b6118598185611809565b935061186981856020860161181a565b6118728161154f565b840191505092915050565b600060808201905061189260008301876117ef565b81810360208301526118a48186611844565b90506118b36040830185611785565b6118c06060830184611785565b95945050505050565b6000806000606084860312156118e2576118e16114dd565b5b60006118f086828701611530565b935050602084013567ffffffffffffffff811115611911576119106114e2565b5b61191d8682870161165d565b925050604061192e868287016116ac565b9150509250925092565b7f596f75206172656e27742074686520706572736f6e20746f2077686f6d20746860008201527f65207265717565737420776173206d6164652100000000000000000000000000602082015250565b6000611994603383611809565b915061199f82611938565b604082019050919050565b600060208201905081810360008301526119c381611987565b9050919050565b7f4c65737320616d6f756e742073656e74207468616e2072657175657374656421600082015250565b6000611a00602083611809565b9150611a0b826119ca565b602082019050919050565b60006020820190508181036000830152611a2f816119f3565b9050919050565b7f4e6f2070656e64696e67206c656e64696e672072657175657374732100000000600082015250565b6000611a6c601c83611809565b9150611a7782611a36565b602082019050919050565b60006020820190508181036000830152611a9b81611a5f565b9050919050565b7f4e487b7100000000000000000000000000000000000000000000000000000000600052602260045260246000fd5b60006002820490506001821680611ae957607f821691505b602082108103611afc57611afb611aa2565b5b50919050565b60008190508160005260206000209050919050565b60006020601f8301049050919050565b600082821b905092915050565b600060088302611b647fffffffffffffffffffffffffffffffffffffffffffffffffffffffffffffffff82611b27565b611b6e8683611b27565b95508019841693508086168417925050509392505050565b6000819050919050565b6000611bab611ba6611ba18461168b565b611b86565b61168b565b9050919050565b6000819050919050565b611bc583611b90565b611bd9611bd182611bb2565b848454611b34565b825550505050565b600090565b611bee611be1565b611bf9818484611bbc565b505050565b5b81811015611c1d57611c12600082611be6565b600181019050611bff565b5050565b601f821115611c6257611c3381611b02565b611c3c84611b17565b81016020851015611c4b578190505b611c5f611c5785611b17565b830182611bfe565b50505b505050565b600082821c905092915050565b6000611c8560001984600802611c67565b1980831691505092915050565b6000611c9e8383611c74565b9150826002028217905092915050565b611cb7826117fe565b67ffffffffffffffff811115611cd057611ccf611560565b5b611cda8254611ad1565b611ce5828285611c21565b600060209050601f831160018114611d185760008415611d06578287015190505b611d108582611c92565b865550611d78565b601f198416611d2686611b02565b60005b82811015611d4e57848901518255600182019150602085019450602081019050611d29565b86831015611d6b5784890151611d67601f891682611c74565b8355505b6001600288020188555050505b505050505050565b7f426f72726f7720706f73697469766520616d6f756e7421000000000000000000600082015250565b6000611db6601783611809565b9150611dc182611d80565b602082019050919050565b60006020820190508181036000830152611de581611da9565b9050919050565b7f4e487b7100000000000000000000000000000000000000000000000000000000600052603260045260246000fd5b7f4e487b7100000000000000000000000000000000000000000000000000000000600052601160045260246000fd5b6000611e558261168b565b91507fffffffffffffffffffffffffffffffffffffffffffffffffffffffffffffffff8203611e8757611e86611e1b565b5b600182019050919050565b6000611e9d8261168b565b9150611ea88361168b565b9250828203905081811115611ec057611ebf611e1b565b5b92915050565b600081549050611ed581611ad1565b9050919050565b818103611eea575050611fc2565b611ef382611ec6565b67ffffffffffffffff811115611f0c57611f0b611560565b5b611f168254611ad1565b611f21828285611c21565b6000601f831160018114611f505760008415611f3e578287015490505b611f488582611c92565b865550611fbb565b601f198416611f5e87611b02565b9650611f6986611b02565b60005b82811015611f9157848901548255600182019150600185019450602081019050611f6c565b86831015611fae5784890154611faa601f891682611c74565b8355505b6001600288020188555050505b5050505050505b565b7f4e487b7100000000000000000000000000000000000000000000000000000000600052603160045260246000fdfea2646970667358221220bd67fd31889d9dd92cc3a9d185aa00149601106f12555ddf5245cd89885fbe6764736f6c63430008130033",
  "linkReferences": {},
  "deployedLinkReferences": {}
}